:020000040000FA
:100000000C9484010C94B5010C94B5010C94B501C9
:100010000C94B5010C94B5010C94B5010C94B50188
:100020000C94B5010C94B5010C94B5010C94B50178
:100030000C94B5010C94B5010C94B5010C94B50168
:100040000C94B5010C94B5010C94B5010C94B50158
:100050000C94B5010C94B5010C94B5010C94930962
:100060000C94B5010C94070A0C94DD090C94B501AD
:100070000C94B5010C94B5010C94B5010C94B50128
:100080000C94B5010C94B5010C94B5010C94B50118
:100090000C94B5010C94B5010C94B5010C943D0A77
:1000A0000C94B5010C94B5010C94B5010C94B501F8
:1000B0000C94B5010C94B5010C94B5010C94B501E8
:1000C0000C94B5010C94B5010C94B5010C94B501D8
:1000D0000C94B5010C94B5010C94B5010C94B501C8
:1000E0000C94B5010C940A040C9415020C94B903F9
:1000F0000C94DB010C9427030C94AB050C94A00F1B
:100100000C94FE010C9454050C940C120C940802EF
:100110000C94BA030C94E90F0C940C020C94640533
:100120000C94E3010C94EA010C94D5010C94D602D2
:100130000C940E100C9439100C94F4060C943103AA
:100140000C9410020C943B030C94E8020C94E00213
:100150000C94C2020C9418040C94C1060C941D0358
:100160000C94E7030C94FA020C94CD110C94B70391
:100170000C94DF010C9404030C94F4010C944503DB
:100180000C94BD020C9454120C94F6030C94E701E9
:100190000C941A020C9450040C9402020C94F00279
:1001A0000C94FA010C947E050C9477050C944F0383
:1001B0000C949E110C94CC020C940E030C94160219
:1001C0000C9413100C94B8030C9455050C94980FD0
:1001D0000C9428100C94F0010C94A60B0C94B5020E
:1001E0000C949D04000020002300260029002C0010
:1001F0002F00320000010000030106010901000088
:100200002100240027002A002D00300033000101C6
:100210000000040107010A01000022002500280057
:100220002B002E00310034000201000005010801FE
:100230000B0105050505070508080808020202026A
:100240000A0A080804040404010101010101010172
:100250000303030303030303040707070C0C0C0C3D
:100260000C0C0C0C02020202060606060606060626
:100270000B0B0B0B0B0B0B0B0102102020080810B3
:100280002040102040800201020108040201010206
:1002900004081020408080402010080402018004DF
:1002A000020180402010080402010804020101023A
:1002B0000408102040800102040810204080000043
:1002C0000A0B02090C0D0E080703040100000000D0
:1002D000000000000000000000000000000000001E
:1002E00000000000000000000000121110000000DB
:1002F00000000000000000000000000000000000FE
:1003000000000000A60B541211241FBECFEFD1E253
:10031000DEBFCDBF00E00CBF24E0AAE7B2E001C021
:100320001D92AC3AB207E1F712E0A0E0B2E0E0E3E0
:10033000FEE200E00BBF02C007900D92AA37B107A2
:10034000D9F711E0C3E8D1E000E006C02197010928
:10035000802FFE010E94E814C238D10780E0080710
:10036000A9F70E94A90C0C9406170C940000815068
:10037000823108F05AC0E82FF0E08827ED53FE4F95
:100380008F4F0C94E814E301E701D501DB01DF0195
:100390001502EA01F001F401FA01FE01020208026D
:1003A0000C021502100216021A02809180008F774B
:1003B000809380000895809180008F7DF9CF809197
:1003C0008000877FF5CF84B58F7784BD089584B58D
:1003D0008F7DFBCF8091B0008F778093B000089520
:1003E0008091B0008F7DF9CF809190008F778093BE
:1003F00090000895809190008F7DF9CF80919000BA
:10040000877FF5CF8091A0008F778093A00008951B
:100410008091A0008F7DF9CF8091A000877FF5CFDC
:10042000809120018F778093200108958091200191
:100430008F7DF9CF80912001877FF5CF1F93CF93D8
:10044000DF93282F30E0F901E254FD4F8491F90148
:10045000E858FD4FD491F901EE5CFD4FC491CC23D7
:10046000A9F0162F81110E94B701EC2FF0E0EE0FDA
:10047000FF1FE85EFD4FA591B4918FB7F894EC9102
:10048000111108C0D095DE23DC938FBFDF91CF918F
:100490001F910895DE2BF8CFCF93DF9390E0FC01FE
:1004A000E858FD4F24918E5C9D4FFC018491882378
:1004B000D1F090E0880F991FFC01E250FE4FA5910A
:1004C000B491FC01E85EFD4FC591D49161110EC05D
:1004D0009FB7F8948C91E22FE0958E238C9328811E
:1004E000E223E8839FBFDF91CF9108958FB7F894FF
:1004F000EC91E22BEC938FBFF6CF1F93CF93DF935A
:10050000182FEB0161E00E944C02209739F460E063
:10051000812FDF91CF911F910C941E02CF3FD10507
:1005200011F461E0F5CFE12FF0E0E254FD4FE491EA
:10053000E150E23108F0B3C0F0E08827ED55FD4FFF
:100540008F4F0C94E814B502BD02C202CC02D60251
:100550004F03E002E802F002FA0204030E031D0357
:1005600027034F0331033B03450384B5806884BDF3
:10057000C7BDDF91CF911F91089584B5806284BD7E
:10058000C8BDF7CF80918000806880938000D093B1
:100590008900C0938800EDCF8091800080628093B5
:1005A0008000D0938B00C0938A00E3CF80918000BD
:1005B000886080938000D0938D00C0938C00D9CF49
:1005C0008091B00080688093B000C093B300D1CF19
:1005D0008091B00080628093B000C093B400C9CF16
:1005E00080919000806880939000D0939900C09390
:1005F0009800BFCF80919000806280939000D0934C
:100600009B00C0939A00B5CF809190008860809342
:100610009000D0939D00C0939C00ABCF8091A00030
:1006200080688093A0008091A0008F7B8093A000C1
:10063000D093A900C093A8009CCF8091A0008062B5
:100640008093A000D093AB00C093AA0092CF80917A
:10065000A00088608093A000D093AD00C093AC0050
:1006600088CF80912001806880932001D093290158
:10067000C09328017ECF8091200180628093200169
:10068000D0932B01C0932A0174CF80912001886000
:1006900080932001D0932D01C0932C016ACFC038E4
:1006A000D1050CF03ECF33CF3FB7F894809166036D
:1006B00090916703A0916803B091690326B5A89B48
:1006C00005C02F3F19F00196A11DB11D3FBFBA2FE4
:1006D000A92F982F8827BC01CD01620F711D811DA4
:1006E000911D42E0660F771F881F991F4A95D1F729
:1006F00008958F929F92AF92BF92CF92DF92EF9226
:10070000FF924B015C010E9454036B017C010E942B
:1007100054036C197D098E099F09683E7340810559
:100720009105A8F321E0821A9108A108B10888EE8A
:10073000C80E83E0D81EE11CF11C81149104A104B1
:10074000B10429F7FF90EF90DF90CF90BF90AF906A
:100750009F908F9008952FB7F894609162037091E5
:10076000630380916403909165032FBF08950895FA
:1007700008950895AF92BF92CF92DF92EF92FF92C9
:100780000F931F93CF93DF936C017B018B01040FB9
:10079000151FEB015E01AE18BF08C017D10759F055
:1007A0006991D601ED91FC910190F081E02DC60197
:1007B0001995892B79F7C501DF91CF911F910F9181
:1007C000FF90EF90DF90CF90BF90AF900895FC0125
:1007D000538D448D252F30E0842F90E0821B930BA6
:1007E000541710F0CF96089501970895FC01918D4C
:1007F000828D981761F0A28DAE0FBF2FB11D5D964F
:100800008C91928D9F5F9F73928F90E008958FEFF0
:100810009FEF0895FC01918D828D981731F0828DA4
:10082000E80FF11D858D90E008958FEF9FEF0895FB
:10083000FC01918D228D892F90E0805C9F4F821B5F
:1008400091098F73992708958BE693E00E9418040D
:1008500021E0892B09F420E0822F0895FC01A48D6A
:10086000A80FB92FB11DA35ABF4F2C91848D90E0D2
:1008700001968F739927848FA689B7892C93A089B5
:10088000B1898C91837080648C93938D848D98133F
:1008900006C00288F389E02D80818F7D80830895D2
:1008A000EF92FF920F931F93CF93DF93EC0181E0C0
:1008B000888F9B8D8C8D98131AC0E889F989808167
:1008C00085FF15C09FB7F894EE89FF896083E8899A
:1008D000F98980818370806480839FBF81E090E08C
:1008E000DF91CF911F910F91FF90EF900895F62E19
:1008F0000B8D10E00F5F1F4F0F731127E02E8C8DB3
:100900008E110CC00FB607FCFACFE889F9898081F7
:1009100085FFF5CFCE010E942E04F1CFEB8DEC0FB9
:10092000FD2FF11DE35AFF4FF0829FB7F8940B8F14
:10093000EA89FB8980818062CFCFCF93DF93EC017E
:10094000888D8823B9F0AA89BB89E889F9898C91B7
:1009500085FD03C0808186FD0DC00FB607FCF7CF73
:100960008C9185FFF2CF808185FFEDCFCE010E9473
:100970002E04E9CFDF91CF91089580E090E0892B9C
:1009800029F00E94240481110E94000080E090E080
:10099000892B49F080E090E0892B29F00E9400002B
:1009A00081110E94000080E090E0892B49F080E0F6
:1009B00090E0892B29F00E94000081110E94000024
:1009C00080E090E0892B49F080E090E0892B29F0CD
:1009D0000E94000081110C94000008952091BB0238
:1009E000260F3327331F21323105ECF42091040305
:1009F000FC0190E080E0243069F082E00895A0914D
:100A0000BB022191AC0145565D4FA40FB52FB11D1E
:100A10002C930196861798F38091BB02680F609320
:100A2000BB0280E0089581E008951092040381E004
:100A3000809303031092DE0261E084E10E941E02B3
:100A400061E085E10E941E02E9EBF0E080818E7F8B
:100A5000808380818D7F808388E48093B80085E4E3
:100A60008093BC000895CF93DF9391E090939A0216
:100A70008823B9F0C091B800D091BA008091BC0031
:100A80008A7B8093BC0060E084E10E941E0260E0EB
:100A900085E10E941E020E941505D093BA00C09302
:100AA000B800DF91CF9108950895E09133038091CC
:100AB0003203E81730F4F0E0E658FD4F808190E013
:100AC00008958FEF9FEF0895909133038091320343
:100AD0002FEF3FEF981748F4E92FF0E0E658FD4F6D
:100AE000208130E09F5F90933303C9010895809186
:100AF000320390913303891B990B0895CF92DF92B3
:100B0000EF92FF920F931F93CF93DF937C01CB0162
:100B10008A0120910A03222389F0EB016B01C40EA4
:100B2000D51ECC15DD0569F06991D701ED91FC91D9
:100B30000190F081E02DC7011995F3CF642F0E9439
:100B4000EE04C801DF91CF911F910F91FF90EF90BC
:100B5000DF90CF900895CF93DF931F92CDB7DEB78C
:100B6000698320910A032223F9F020913003203277
:100B700058F021E030E0FC013383228390E080E0F4
:100B80000F90DF91CF91089580913103E82FF0E02D
:100B9000E55FFC4F998190838F5F80933103809351
:100BA000300381E090E0ECCF61E0CE0101960E943D
:100BB000EE04F7CFCF92DF92EF92FF920F931F9345
:100BC000CF93DF93FC01C48121E020930A03C093FB
:100BD0002B0310923103109230038385682B88E039
:100BE00094E00E94AB05D0913003D13208F092C05E
:100BF0000E9454036B017C0180910403811165C044
:100C000082E08093040381E0809303038FEF80935D
:100C1000020310920103D0930003ABE0B3E0E0EED7
:100C2000F2E080E0D81385C01092DF028091DF02ED
:100C3000CC0FC82BC093DF028091DE02813009F017
:100C40007CC01092DE020E9454036B017C018091F3
:100C5000DF028093BB008091060390910703A0916F
:100C60000803B0910903892B8A2B8B2B99F00E94E2
:100C7000540300910603109107032091080330915B
:100C800009036C197D098E099F09061717072807A4
:100C90003907E0F18091BC0083FDD9CF85EC8093CA
:100CA000BC000E9454036B017C01809104038230DC
:100CB00009F445C0809102038F3F61F180910203E6
:100CC000803241F18091020325C08091060390910A
:100CD0000703A0910803B0910903892B8A2B8B2B62
:100CE00009F48ACF0E945403009106031091070370
:100CF00020910803309109036C197D098E099F0921
:100D0000061717072807390708F076CF80910503E3
:100D10000E943305109231031092300310920A039F
:100D2000DF91CF911F910F91FF90EF90DF90CF90C7
:100D300008959D9191938F5F75CF85EEB0CF80918F
:100D4000060390910703A0910803B0910903892B32
:100D50008A2B8B2B09F4A9CF0E9454030091060320
:100D60001091070320910803309109036C197D0944
:100D70008E099F09061717072807390708F095CF2E
:100D8000C5CF90E080E008950F931F93CF938C011F
:100D9000C62F0E94DA056C2F6460C8010E94DA0534
:100DA0006C2F6B7FC8010E94DA0583EC90E00197FD
:100DB000F1F7CF911F910F9108950F931F93CF9348
:100DC000DF938C01D62FC42F607F642B0E94C40652
:100DD00080E1D89FB00111246C2BC801DF91CF9125
:100DE0001F910F910C94C40641E00E94DD0681E042
:100DF00090E00895FB0101900020E9F73197AF01E1
:100E0000461B570BDC01ED91FC910280F381E02D34
:100E100019948F929F92AF92BF920F931F93CF938B
:100E2000DF93CDB7DEB7A1970FB6F894DEBF0FBE44
:100E3000CDBF19A2423008F44AE08E010F5D1F4F6A
:100E4000842E912CB12CA12CA50194010E94C614D2
:100E5000E62FB901CA01EA3004F5E05DD801EE934E
:100E60008D01232B242B252B79F790E080E0109720
:100E700029F0BD018BE693E00E94FA06A1960FB619
:100E8000F894DEBF0FBECDBFDF91CF911F910F91C0
:100E9000BF90AF909F908F900895E95CDFCFCF9285
:100EA000DF92EF92FF92CF93DF936B017C016DE2B3
:100EB0008BE693E00E945004EC0166277727CB0174
:100EC0006C197D098E099F094AE00E9409078C0F61
:100ED0009D1FDF91CF91FF90EF90DF90CF9008950D
:100EE000CF93DF93BC018BE693E00E94FA06EC01FE
:100EF00066E572E08BE693E00E94FA068C0F9D1F78
:100F0000DF91CF910895CF93DF93BC01990F880BA8
:100F1000990B97FF0EC00E944F07EC0166E572E047
:100F20008BE693E00E94FA068C0F9D1FDF91CF9114
:100F300008954AE00E940907F0CF0F931F93CF93C3
:100F4000DF938C01EB01FC01808191810097E1F03E
:100F50006881798161157105A9F0428153812C81E5
:100F60003D814217530770F00E94FF168C819D81CE
:100F7000F801958384831D821C82DF91CF911F919C
:100F80000F9108950E948C1588819981F8019183B1
:100F900080838A819B81938382838C819D819583C9
:100FA0008483198218821B821A82E5CFFC0180811A
:100FB0009181009711F00C948C1508950F931F9355
:100FC000CF93DF93EC0188819981009759F02A81B2
:100FD0003B812617370730F081E0DF91CF911F91D9
:100FE0000F9108958B016F5F7F4F0E941516009738
:100FF00059F0998388831B830A832C813D81232B9D
:1010000059F7FC011082E8CF80E0E7CFEF92FF9222
:101010000F931F93CF93DF93EC017B018A01BA01F9
:101020000E94DE0728813981811114C02115310504
:1010300019F0C9010E948C15198218821D821C8228
:101040001B821A82CE01DF91CF911F910F91FF90E9
:10105000EF9008951D830C83B701C9010E94FF160C
:10106000F1CFFB0101900020E9F73197AF01461B5A
:10107000570B0C9406086F927F928F929F92AF92BB
:10108000BF92CF92DF92EF92FF920F931F93CF9375
:10109000DF931F921F92CDB7DEB78C015B014A012F
:1010A000DC0111961C921E9213961C921E921297AE
:1010B00015961C921E92149768E572E00E94310802
:1010C000F50164807580861497040CF043C0F12C00
:1010D000E12CE614F704F4F5F0E1EF16F104D1F198
:1010E000C4018E0D9F1DD50114962D913C9115972D
:1010F0008217930720F4ED91FC91309741F51092FF
:101100006A03EAE6F3E0808189831A82F801C480E9
:10111000D580FFEFCF1ADF0AB601C8010E94DE07B3
:10112000882389F0D8012D913C91119714968D91C7
:101130009C91BE016F5F7F4F820F931F0E94FF162D
:10114000F801D582C482FFEFEF1AFF0AC2CFE80F81
:10115000F91FD9CFC8010F900F90DF91CF911F9148
:101160000F91FF90EF90DF90CF90BF90AF909F9046
:101170008F907F906F900895CF93DF93EC01FB01E8
:101180008617970749F0608171816115710541F0FB
:10119000448155810E940608CE01DF91CF910895C8
:1011A00088819981009711F00E948C15198218820C
:1011B0001D821C821B821A82EFCFCF92DF92EF92A8
:1011C000FF920F931F93CF93DF93CDB7DEB72C978A
:1011D0000FB6F894DEBF0FBECDBF7C018B01FB01C3
:1011E000C480D580FFEFCF1ADF0AB601C8010E9484
:1011F000DE07882371F0F801208131818481958197
:1012000069E572E0820F931F0E94FF16F801D582F4
:10121000C48286E08E9D60018F9DD00C1124B801A0
:10122000C6018C589B4F0E94BC0818861F821A86E4
:1012300019861C861B86B801CE0107960E94BC0841
:1012400050E040E0BE01695F7F4FCE0101960E94F1
:101250003B08BE016F5F7F4FC60180589B4F0E94C5
:101260009D07CE0101960E94D607CE0107960E94E7
:10127000D607F701EE0FFF1FE457FB4F11821082D4
:10128000F80184819581F701EC58FB4F409788F075
:1012900081E0848F2C960FB6F894DEBF0FBECDBFD1
:1012A000DF91CF911F910F91FF90EF90DF90CF9042
:1012B0000895148EEFCF85ED8093BC0080910603D6
:1012C00090910703A0910803B09109030796A11D0F
:1012D000B11D23E0B695A795979587952A95D1F7E7
:1012E0002091BC0024FD03C0109204030895409196
:1012F0000603509107036091080370910903452B81
:10130000462B472B69F30097A105B10541F02AE26E
:101310002A95F1F700C00197A109B109E1CF8091A9
:1013200005030C9433051F920F920FB60F921124F0
:101330002F933F938F939F93AF93BF9380916203BB
:1013400090916303A0916403B091650330916103B0
:1013500023E0230F2D3758F50196A11DB11D2093D1
:1013600061038093620390936303A0936403B0933B
:1013700065038091660390916703A0916803B09123
:1013800069030196A11DB11D8093660390936703C5
:10139000A0936803B0936903BF91AF919F918F9120
:1013A0003F912F910F900FBE0F901F90189526E838
:1013B000230F0296A11DB11DD2CF1F920F920FB61F
:1013C0000F9211240BB60F922F933F934F935F937D
:1013D0006F937F938F939F93AF93BF93EF93FF93FD
:1013E0008BE693E00E942E04FF91EF91BF91AF91A5
:1013F0009F918F917F916F915F914F913F912F912D
:101400000F900BBE0F900FBE0F901F9018951F925C
:101410000F920FB60F9211240BB60F922F938F934A
:101420009F93EF93FF93E0917B03F0917C03808186
:10143000E0918103F091820382FD1DC09081809133
:1014400084038F5F8F7320918503821741F0E091B1
:101450008403F0E0E559FC4F958F80938403FF915E
:10146000EF919F918F912F910F900BBE0F900FBE18
:101470000F901F9018958081F2CF1F920F920FB698
:101480000F9211240BB60F922F933F934F935F93BC
:101490006F937F938F939F93AF93BF93EF93FF933C
:1014A0008091B900887F803609F44DC008F040C0B3
:1014B000883209F4A9C028F5803109F49DC0C8F428
:1014C000882309F4FBC0883009F496C0FF91EF919E
:1014D000BF91AF919F918F917F916F915F914F914C
:1014E0003F912F910F900BBE0F900FBE0F901F904A
:1014F0001895883109F488C0803241F7809302033F
:1015000014C0803409F49DC040F48033B9F38833AB
:10151000E9F68093020385ECB0C0803509F485C0FC
:10152000883509F496C0883489F60E945B09CECFCD
:10153000883909F48CC038F5883729F050F488369A
:1015400011F0803719F683E0809304031092DD02D6
:1015500057C0883809F47BC0803919F0803809F009
:10156000B5CF8091DD02803208F071C0E091DD02DC
:1015700081E08E0F8093DD028091BB00F0E0E354A8
:10158000FD4F80833DC0803B39F0E0F4803A09F4A0
:1015900079C0883A09F09ACF84E0809304031092CE
:1015A000BC021092BB02E0912E03F0912F0319951B
:1015B0008091BB0281110FC081E08093BB02109229
:1015C0009B0209C0803C09F4A6CF883C09F4A3CF54
:1015D000883B09F07BCFE091BC0281E08E0F8093C5
:1015E000BC02F0E0E556FD4F80818093BB009091F6
:1015F000BC028091BB0229C08091DF028093BB00B6
:1016000085EC8093BC0062CF909101038091000330
:10161000981758F5E091010381E08E0F8093010344
:10162000F0E0E052FD4F8081E9CFE091010381E0DD
:101630008E0F809301038091BB00F0E0E052FD4FDC
:10164000808390910103809100039817C8F285E888
:10165000D8CFE091010381E08E0F80930103809148
:10166000BB00F0E0E052FD4F8083809103038111C5
:101670005CCF81E08093DE0284EA8093BC0010920C
:10168000040324CF85EC8093BC0010920403809166
:10169000DD02803230F4E091DD02F0E0E354FD4FF2
:1016A00010826091DD0270E0E0912C03F0912D0337
:1016B0008DEB92E019951092DD0208CF1092020393
:1016C00034CFCF92DF92EF92FF920F931F93E82FC8
:1016D000F92F05C0015011092109310961F19081EB
:1016E00096239417B9F305C0015011092109310956
:1016F00011F1908196239413F7CFC12CD12CE12CBA
:10170000F12C0AC08FEFC81AD80AE80AF80A0C159B
:101710001D052E053F0579F080818623841791F3FE
:101720006C2D7D2D8E2D9F2D1F910F91FF90EF9091
:10173000DF90CF90089560E070E080E090E01F912E
:101740000F91FF90EF90DF90CF900895AF92BF92EE
:10175000CF92DF92EF92FF920F931F93CF93DF937D
:1017600010926E0310926D0388EE93E0A0E0B0E05B
:1017700080936F0390937003A0937103B0937203EF
:101780002AE232E030936C0320936B0325EC30E0C7
:10179000309378032093770324EC30E030937A037E
:1017A0002093790320EC30E030937C0320937B037B
:1017B00021EC30E030937E0320937D0322EC30E077
:1017C0003093800320937F0326EC30E03093820334
:1017D0002093810310928403109285031092860354
:1017E0001092870310920B0410920A0480930C0449
:1017F00090930D04A0930E04B0930F048CE392E039
:10180000909309048093080410929F0410929E0400
:101810008EE492E090939D0480939C0487E28093F1
:10182000A00480E18093A50482E08093A604109236
:10183000A704109275041092740410927704109209
:101840007604109279041092780468E572E084E7D7
:1018500094E00E94310810927B0410927A04109256
:101860007D0410927C0410927F0410927E0468E53F
:1018700072E08AE794E00E9431081092810410928D
:1018800080041092830410928204109285041092B6
:10189000840450E040E068E572E080E894E00E9453
:1018A0000608109287041092860410928904109200
:1018B000880410928B0410928A0450E040E068E59E
:1018C00072E086E894E00E9406088CE291E0909332
:1018D0009304809392040E94AB03609394047093EA
:1018E000950480939604909397040E94AB036093B1
:1018F00098047093990480939A0490939B04C4E194
:10190000D4E004E714E084E6A82EB12C92E3C92EBB
:10191000D12C2AE0E22EF12CBD82AC820E94AB03D6
:101920007F836E83D986C886FB86EA861C861D86E1
:101930001E861F8660960C171D0771F7DF91CF91E9
:101940001F910F91FF90EF90DF90CF90BF90AF90DD
:101950000895CF93DF93CDB7DEB760970FB6F894B5
:10196000DEBF0FBECDBF789484B5826084BD84B5E0
:10197000816084BD85B5826085BD85B5816085BD8A
:1019800080916E00816080936E0010928100809142
:1019900081008260809381008091810081608093CA
:1019A0008100809180008160809380008091B100EF
:1019B00084608093B1008091B00081608093B0001A
:1019C000809191008260809391008091910081606C
:1019D000809391008091900081608093900080912D
:1019E000A10082608093A1008091A100816080931A
:1019F000A1008091A00081608093A00080912101CE
:101A00008260809321018091210181608093210176
:101A10008091200181608093200180917A00846010
:101A200080937A0080917A00826080937A0080911E
:101A30007A00816080937A0080917A008068809338
:101A40007A001092C10061E088E00E944C0261E0DF
:101A500089E00E944C0261E08AE00E944C0261E051
:101A60008BE00E944C02E0917B03F0917C0382E0CA
:101A70008083E0917703F09178031082E0917903FD
:101A8000F0917A0380E1808310928303E0917F03D9
:101A9000F091800386E08083E0917D03F0917E03E6
:101AA000808180618083E0917D03F0917E0380815D
:101AB00088608083E0917D03F0917E03808180685F
:101AC0008083E0917D03F0917E0380818F7D808310
:101AD00064E670E080E090E00E9479038BE693E09A
:101AE0000E941804181619060CF009C28BE693E040
:101AF0000E94F603833A91F7EEE0EE2EE2E0FE2E2E
:101B000004E114E0F4E7CF2EF4E0DF2ED7011296C3
:101B10002D913C9113978C9111969C91F8018083A3
:101B200091833383228361E00E944C0260E0D801FC
:101B300012968C910E944C02B4E0EB0EF11C005FF7
:101B40001F4FC016D10611F71092330310923203C3
:101B500010923103109230030E94150587EB93E039
:101B600090932F0380932E0388EB93E090932D03A3
:101B700080932C031092A1048091A604823018F067
:101B800098E09093A1048093A40462E370E080E065
:101B900090E00E9479036091A7048CE994E00E9490
:101BA000DA0568EE73E080E090E00E94790360E37C
:101BB0008CE994E00E94C4060BE416E4C801019786
:101BC000F1F760E38CE994E00E94C406C801019734
:101BD000F1F760E38CE994E00E94C40683E592E0AB
:101BE0000197F1F760E28CE994E00E94C4066091ED
:101BF000A104606240E08CE994E00E94DD0684E08C
:101C00008093A20440E06CE08CE994E00E94DD0641
:101C100040E061E08CE994E00E94DD060BE31FE107
:101C2000C8010197F1F782E08093A30440E066E0E9
:101C30008CE994E00E94DD0640E062E08CE994E0EB
:101C40000E94DD06C8010197F1F788E08093A704A0
:101C500060E08CE994E00E94DA0561E08CE00E948B
:101C60001E0261E08DE00E941E027CE7272E74E0D8
:101C7000372E50E9A52E54E0B52E64E7C62E64E059
:101C8000D62E760186010E94AB032B013C01F501A3
:101C900081915F01882309F47AC0F60180A191A1A6
:101CA000A2A1B3A1B301A201481B590B6A0B7B0B84
:101CB0008091920490919304092E000CAA0BBB0B07
:101CC000481759076A077B0708F461C0D80158967E
:101CD0006D917C9159976F5F7F4F59967C936E936E
:101CE0005897072E000C880B990B97FF12C10E9482
:101CF0004F0769E572E08BE693E00E94FA06F70170
:101D00006481758190E080E04AE00E94090766E501
:101D100072E08BE693E00E94FA06D80158962D9166
:101D20003C915997F701848195812817390720F054
:101D300059961C921E925897D80158968D909C9057
:101D40001A8219821C821B821E821D82B701CE015B
:101D500001960E94BC08A401BE016F5F7F4FCE01B7
:101D600009960E943B08BE01675F7F4FC7010C9632
:101D70000E949D07CE0109960E94D607CE010196CA
:101D80000E94D607F60140A251A262A273A2F4E01B
:101D9000CF0ED11C0E5F1F4F26E0E20EF11C2C145B
:101DA0003D0409F070CF88E0E6E0F2E0DE01119634
:101DB00001900D928A95E1F76981606840E08CE9B5
:101DC00094E00E94DD0660918004709181046115A9
:101DD000710521F08CE994E00E94FA0688E0E6E0C3
:101DE000F2E0DE01119601900D928A95E1F7809163
:101DF000A404E1E0811101C0EFEFF0E0EE0FFF1F5E
:101E000081E090E08C0F9D1FE80FF91F60816068F2
:101E100040E08CE994E00E94DD06609186047091B8
:101E200087046115710521F08CE994E00E94FA069F
:101E30008BE693E00E941804181619060CF031C3C3
:101E40008BE693E00E94F60320915F0330916003DC
:101E50008D3009F0E4C22130310509F05EC0E09117
:101E60005D03F0915E03E35BFC4F10828DE493E031
:101E70000E9464128C014C01990FAA08BB08809241
:101E8000380390923903A0923A03B0923B038DE35A
:101E900093E00E9464126C01AC01990F660B770B02
:101EA00040933403509335036093360370933703A4
:101EB000E0913C03E156E83108F0AEC20E2E000C72
:101EC000FF0B8827E959F04F8F4F0C94E814A00FAF
:101ED000980F2810E90F0C120C120C120C120C1295
:101EE0000C120C120C120C120C12CD110C120C1242
:101EF0000C129E110C1239100C1213100E1061EA04
:101F00008BE693E00E94500462E370E080E090E092
:101F1000E3CD4AE00E940907ECCE2230310509F0FA
:101F2000A5CFE0915D03F0915E03E35CFC4F9DCF94
:101F30004AE060E072EC81E090E00E940907EDC0A9
:101F4000802F063310F08AEC800F20917B00982FB1
:101F50009870277F922B90937B008770806480938A
:101F60007C0080917A00806480937A0080917A006E
:101F700086FDFCCF80917800909179000E948307C4
:101F800010923C03EDE4F3E0DF0120E11D922A957D
:101F9000E9F7EDE3F3E0DF0120E11D922A95E9F78F
:101FA000109238031092390310923A0310923B03B7
:101FB00010923403109235031092360310923703B7
:101FC0001092600310925F0310925E0310925D0303
:101FD0002FCF1127F801E254FD4F8491F801E85802
:101FE000FD4FF4900E5C1D4FF8010491002399F011
:101FF00081110E94B701E02FF0E0EE0FFF1FEC51BE
:10200000FE4FA591B491EC91FE2281E090E009F0A1
:10201000B5CF80E0B3CF80E090E0B0CFB601802FA5
:102020000E947D0209C0411551056105710549F401
:1020300060E0802F0E941E028BE592E00E947007F4
:102040009FCF4130510561057105B1F761E0F1CFD6
:10205000411551056105710529F460E0802F0E944A
:102060004C02EACF413051056105710529F761E065
:10207000F5CF0E94AB0324E0880C991C2A95E1F768
:1020800094012C5E3B4F7901D90116960D911C915C
:102090001797012E000C220B330BAB01BC01401B28
:1020A000510B620B730B14968D919C91092E000CB1
:1020B000AA0BBB0B481759076A077B07A8F5F7015E
:1020C00084849584A684B784A5019401C501B401D4
:1020D0000E94C1146EE572E081111BC0750164019C
:1020E000E894F7F82FEF3FEF4FE75FE7C701B6013E
:1020F0000E94C1148111ADC02FEF3FEF4FE75FE7A2
:10210000C701B6010E948A1218160CF0A2C062E63E
:1021100072E08BE693E00E94FA0666E572E08BE6D9
:1021200093E00E94FA062CCF0E94AB03D7011796CA
:102130007C936E931697B12CA12C412C512C32011B
:102140006701F7013A96F88BEF874701F2E08F0EAF
:10215000911CAF85B8890D911C91A016B1060CF0A9
:1021600052C060E0F60180810E941E0283E090E090
:102170000197F1F761E0D6018C910E941E0283E283
:1021800090E00197F1F760E0F60180810E941E0265
:10219000D4018D919C919927FC01E858FD4F6491E1
:1021A000FC01EE5CFD4FE491F0E0EE0FFF1FEC51FF
:1021B000FE4F8591949108E91AE320E030E0462F24
:1021C0000E94610B611571058105910551F0DC01DB
:1021D000CB010196A11DB11DBF700097A105B105EE
:1021E00021F488E99AE3A0E0B0E0480E591E6A1E87
:1021F0007B1E61E070E080E090E00E947903BFEF19
:10220000AB1ABB0AA6CFC301B2010E948F124B01C9
:102210005C01B801110F880B990B0E9491129B0170
:10222000AC01C501B4010E941B1426E933E44BE064
:102230005DE30E94F01220E030E040E05FE30E94A6
:10224000F0124B015C01F70184869586A686B7865D
:102250003BCF2FEF3FEF4FE75FE4C501B4010E9492
:10226000BC1418161CF466E672E053CF2FEF3FEF54
:102270004FE75FECC501B4010E948A1287FDF3CFDE
:1022800020E030E0A901C501B4010E948A1287FF55
:1022900009C06DE28BE693E00E945004B7FAB09457
:1022A000B7F8B0942AE037ED43EA5BE3C501B40127
:1022B0000E94AF134B015C010E948D146B017C01E5
:1022C0000E948F129B01AC01C501B4010E94AE13A4
:1022D0004B015C014AE0C701B6010E9409076EE2AA
:1022E0008BE693E00E94500420E030E040E251E4AD
:1022F000C501B4010E94F0124B015C010E948D14D3
:102300006B01F12CE12C4AE0C701B6010E940907DC
:10231000C701B6010E948F129B01AC01C501B40137
:102320000E94AE1320E030E040E251E40E94F0123F
:102330000E948D1490E080E04AE0FFCD1A8219825D
:102340001C821B821E821D826DE473E0CE01019609
:102350000E943108BE016F5F7F4F90E080E00E94D5
:10236000DD08CE0101960E94D6071A8219821C82CE
:102370001B821E821D826DE373E0CE0101960E94D6
:102380003108BE016F5F7F4F81E090E00E94DD0861
:10239000CE0101960E94D607F3CD0E94AB0380E0E8
:1023A00017FF04C011950195110981E0B8010F3F95
:1023B000110519F014F06FEF70E081111FC083E078
:1023C0000E947D0270E060E085E00E947D0280E076
:1023D000D7FE04C0D194C194D10881E0B6016F3F0B
:1023E000710519F014F06FEF70E081110EC089E0F3
:1023F0000E947D0270E060E086E012CE85E00E94DF
:102400007D0270E060E083E0E0CF86E00E947D0224
:1024100070E060E089E004CE8AE692E00FCE803280
:10242000E1F42115310539F481E090E090936003E7
:1024300080935F03FDCC2130310509F0F9CCE091A8
:102440005D03F0915E03E35BFC4F1082A2E0B0E01D
:10245000B0936003A0935F03B7CD2115310519F444
:1024600080933C03E5CC2130310579F420915D0364
:1024700030915E03F901E35BFC4F80832F5F3F4F98
:1024800030935E0320935D03D3CC2230310509F0F5
:10249000CFCC20915D0330915E03F901E35CFC4FEA
:1024A000ECCF0E94BD04E5CB86E894E00E94D607FD
:1024B00080E894E00E94D6078AE794E00E94D6075D
:1024C00084E794E00C94D607FC0188279927E894C8
:1024D00021912032E9F3293010F02E30C8F32B324D
:1024E00041F02D3239F4689404C00E948212820FA8
:1024F000911D219120532A30C0F31EF490958195AF
:102500009F4F08957AE0979F902D879F802D910D82
:10251000112408950E94CC1208F481E00895E894F3
:1025200009C097FB3EF490958095709561957F4F1B
:102530008F4F9F4F9923A9F0F92F96E9BB279395C9
:10254000F695879577956795B795F111F8CFFAF4D9
:10255000BB0F11F460FF1BC06F5F7F4F8F4F9F4F0A
:1025600016C0882311F096E911C0772321F09EE868
:10257000872F762F05C0662371F096E8862F70E0CE
:1025800060E02AF09A95660F771F881FDAF7880FA8
:102590009695879597F90895990F0008550FAA0BFE
:1025A000E0E8FEEF16161706E807F907C0F0121666
:1025B0001306E407F50798F0621B730B840B950B69
:1025C00039F40A2661F0232B242B252B21F40895BE
:1025D0000A2609F4A140A6958FEF811D811D08955B
:1025E0000E9403130C9474130E94661338F00E9427
:1025F0006D1320F0952311F00C945D130C9463136C
:1026000011240C94A8130E94851370F3959FC1F3B5
:10261000950F50E0551F629FF001729FBB27F00D90
:10262000B11D639FAA27F00DB11DAA1F649F6627E5
:10263000B00DA11D661F829F2227B00DA11D621F34
:10264000739FB00DA11D621F839FA00D611D221FEE
:10265000749F3327A00D611D231F849F600D211DD2
:10266000822F762F6A2F11249F5750409AF0F1F055
:1026700088234AF0EE0FFF1FBB1F661F771F881FBE
:1026800091505040A9F79E3F510580F00C945D1386
:102690000C94A8135F3FE4F3983ED4F386957795A6
:1026A0006795B795F795E7959F5FC1F7FE2B880F64
:1026B000911D9695879597F9089597F99F6780E8FA
:1026C00070E060E008959FEF80EC089500240A9484
:1026D0001616170618060906089500240A941216FD
:1026E0001306140605060895092E0394000C11F430
:1026F000882352F0BB0F40F4BF2B11F460FF04C0DD
:102700006F5F7F4F8F4F9F4F089557FD9058440F35
:10271000551F59F05F3F71F04795880F97FB991F40
:1027200061F09F3F79F087950895121613061406FD
:10273000551FF2CF4695F1DF08C01616170618068A
:10274000991FF1CF86957105610508940895E89465
:10275000BB2766277727CB0197F908955058BB27E9
:10276000AA270E94C6130C9474130E94661338F0B3
:102770000E946D1320F039F49F3F19F426F40C9455
:1027800063130EF4E095E7FB0C945D13E92F0E94B0
:10279000851358F3BA17620773078407950720F06B
:1027A00079F4A6F50C94A7130EF4E0950B2EBA2F2E
:1027B000A02D0B01B90190010C01CA01A001112447
:1027C000FF27591B99F0593F50F4503E68F11A16F3
:1027D000F040A22F232F342F4427585FF3CF469584
:1027E00037952795A795F0405395C9F77EF41F16A6
:1027F000BA0B620B730B840BBAF09150A1F0FF0F70
:10280000BB1F661F771F881FC2F70EC0BA0F621F5B
:10281000731F841F48F4879577956795B795F7954B
:102820009E3F08F0B0CF9395880F08F09927EE0FE0
:102830009795879508950E942F140C9474130E9405
:102840006D1358F00E94661340F029F45F3F29F0A1
:102850000C945D1351110C94A8130C9463130E94F3
:10286000851368F39923B1F3552391F3951B550B09
:10287000BB27AA2762177307840738F09F5F5F4F53
:10288000220F331F441FAA1FA9F335D00E2E3AF092
:10289000E0E832D091505040E695001CCAF72BD0AA
:1028A000FE2F29D0660F771F881FBB1F26173707FB
:1028B0004807AB07B0E809F0BB0B802DBF01FF272D
:1028C00093585F4F3AF09E3F510578F00C945D139A
:1028D0000C94A8135F3FE4F3983ED4F38695779564
:1028E0006795B795F7959F5FC9F7880F911D9695E6
:1028F000879597F90895E1E0660F771F881FBB1F42
:10290000621773078407BA0720F0621B730B840BEE
:10291000BA0BEE1F88F7E09508950E948D1388F09A
:102920009F5798F0B92F9927B751B0F0E1F0660F93
:10293000771F881F991F1AF0BA95C9F714C0B130D4
:1029400091F00E94A713B1E008950C94A713672F8C
:10295000782F8827B85F39F0B93FCCF38695779503
:102960006795B395D9F73EF49095809570956195EC
:102970007F4F8F4F9F4F08950E94CC1208F48FEF26
:1029800008950E94CC12880B990B0895A1E21A2E8B
:10299000AA1BBB1BFD010DC0AA1FBB1FEE1FFF1F03
:1029A000A217B307E407F50720F0A21BB30BE40B53
:1029B000F50B661F771F881F991F1A9469F760959A
:1029C0007095809590959B01AC01BD01CF01089554
:1029D000EE0FFF1F881F8BBF0790F691E02D199413
:1029E0000F931F93CF93DF938230910510F482E011
:1029F00090E0E091AA04F091AB0430E020E0B0E078
:102A0000A0E0309799F42115310509F44AC0281B3C
:102A1000390B24303105D8F58A819B816115710508
:102A200089F1FB0193838283FE0111C040815181B2
:102A30000281138148175907E0F04817590799F4A4
:102A4000109761F012960C93129713961C9332967E
:102A5000CF01DF91CF911F910F9108950093AA04A8
:102A60001093AB04F4CF2115310551F042175307F1
:102A700038F0A901DB019A01BD01DF01F801C1CFE6
:102A8000EF01F9CF9093AB048093AA04CDCFFE0160
:102A9000E20FF31F819391932250310939832883E8
:102AA000D7CF2091A8043091A904232B41F4209181
:102AB0000202309103023093A9042093A8042091CC
:102AC0000002309101022115310541F42DB73EB7C6
:102AD0004091040250910502241B350BE091A8049B
:102AE000F091A904E217F307A0F42E1B3F0B28175F
:102AF000390778F0AC014E5F5F4F2417350748F077
:102B00004E0F5F1F5093A9044093A80481939193A3
:102B10009FCFF0E0E0E09CCFCF93DF930097E9F008
:102B2000FC01329713821282A091AA04B091AB04E7
:102B3000ED0130E020E01097A1F420813181820F77
:102B4000931F2091A8043091A9042817390709F090
:102B500061C0F093A904E093A804DF91CF91089598
:102B6000EA01CE17DF07E8F54A815B819E01411536
:102B70005105B1F7E901FB83EA8349915991C40FEB
:102B8000D51FEC17FD0761F4808191810296840FB7
:102B9000951FE90199838883828193819B838A832E
:102BA000F0E0E0E012968D919C9113970097B9F5B3
:102BB0002D913C911197CD010296820F931F209188
:102BC000A8043091A9042817390739F6309751F530
:102BD0001092AB041092AA04B093A904A093A80485
:102BE000BCCFD383C28340815181840F951FC81706
:102BF000D90761F44E5F5F4F88819981480F591F53
:102C0000518340838A819B8193838283211531057F
:102C100009F0B0CFF093AB04E093AA049ECFFD017E
:102C2000DC01C0CF13821282D7CF4F925F926F9296
:102C30007F928F929F92AF92BF92CF92DF92EF924C
:102C4000FF920F931F93CF93DF938C01009799F41A
:102C5000CB01DF91CF911F910F91FF90EF90DF900B
:102C6000CF90BF90AF909F908F907F906F905F902C
:102C70004F900C94F014FC01E60FF71F9C012250BA
:102C80003109E217F30708F4AEC0D901CD91DC9108
:102C90001197C617D70720F1C530D10578F0CE01BE
:102CA00004978617970750F0C61BD70B2297C1933E
:102CB000D1936D937C93CF010E948C15C801DF9155
:102CC000CF911F910F91FF90EF90DF90CF90BF9029
:102CD000AF909F908F907F906F905F904F900895EE
:102CE0005B01AC1ABD0A4C018C0E9D1EA091AA047A
:102CF000B091AB04512C412CF12CE12C109731F503
:102D00008091A8049091A9048815990509F05CC0E8
:102D10004616570608F058C08091000290910102B3
:102D2000009741F48DB79EB740910402509105027F
:102D3000841B950BE817F90708F055C0F093A90418
:102D4000E093A804F90171836083B8CF8D919C91C1
:102D5000119712966C90129713967C901397A81562
:102D6000B90559F56C0142E0C40ED11CCA14DB044C
:102D700020F1AC014A195B09DA011296159780F02F
:102D80006282738251834083D9016D937C93E114F5
:102D9000F10471F0D7011396FC93EE9312978ECF46
:102DA00022968C0F9D1FF90191838083F301EFCF51
:102DB000F093AB04E093AA0481CF4816590608F4B7
:102DC0002C017D01D3019ACFCB010E94F0147C012C
:102DD000009749F0AE01B8010E94F616C8010E94A2
:102DE0008C1587016BCF10E000E068CFFB01DC01A0
:102DF00002C001900D9241505040D8F70895FB0158
:102E0000DC0101900D920020E1F7089511E0C3E884
:102E1000D1E000E006C0802FFE010E94E814219658
:102E2000011DC438D10780E00807A9F7F894FFCF47
:102E30000000AC0480000000400014005400220098
:102E400023002400250026002700280029000A006E
:102E50000B000C000D00000000005004BA03E70353
:102E60009D041804F6030A0400000000AB057E056B
:102E7000C106540577056405550500000000F406F9
:102E8000BA03C106B9030D0A0020004F4B006E6162
:102E90006E00696E66006F766600496E76616C69D9
:0A2EA0006420436F6D6D616E6400E5
:020000040003F7
:10E000000D9489F10D94B2F10D94B2F10D94B2F129
:10E010000D94B2F10D94B2F10D94B2F10D94B2F1F0
:10E020000D94B2F10D94B2F10D94B2F10D94B2F1E0
:10E030000D94B2F10D94B2F10D94B2F10D94B2F1D0
:10E040000D94B2F10D94B2F10D94B2F10D94B2F1C0
:10E050000D94B2F10D94B2F10D94B2F10D94B2F1B0
:10E060000D94B2F10D94B2F10D94B2F10D94B2F1A0
:10E070000D94B2F10D94B2F10D94B2F10D94B2F190
:10E080000D94B2F10D94B2F10D94B2F10D94B2F180
:10E090000D94B2F10D94B2F10D94B2F10D94B2F170
:10E0A0000D94B2F10D94B2F10D94B2F10D94B2F160
:10E0B0000D94B2F10D94B2F10D94B2F10D94B2F150
:10E0C0000D94B2F10D94B2F10D94B2F10D94B2F140
:10E0D0000D94B2F10D94B2F10D94B2F10D94B2F130
:10E0E0000D94B2F141546D656761323536300041AF
:10E0F000726475696E6F206578706C6F72657220DE
:10E1000073746B3530305632206279204D4C530099
:10E11000426F6F746C6F616465723E004875683F52
:10E1200000436F6D70696C6564206F6E203D200048
:10E130004350552054797065202020203D20005FF9
:10E140005F4156525F415243485F5F3D2000415658
:10E1500052204C696243205665723D20004743437C
:10E160002056657273696F6E203D20004350552024
:10E1700049442020202020203D20004C6F7720663D
:10E18000757365202020203D20004869676820665F
:10E190007573652020203D200045787420667573D6
:10E1A00065202020203D20004C6F636B2066757336
:10E1B000652020203D20004D617220203720323024
:10E1C000313300312E362E3800342E332E350056A2
:10E1D00023202020414444522020206F7020636F70
:10E1E00064652020202020696E73747275637469E1
:10E1F0006F6E2061646472202020496E74657272B3
:10E20000757074006E6F20766563746F7200726A49
:10E210006D702020006A6D70200057686174207056
:10E220006F72743A00506F7274206E6F7420737541
:10E2300070706F72746564004D7573742062652030
:10E2400061206C6574746572002000577269747483
:10E25000696E672045450052656164696E672045B7
:10E26000450045452065727220636E743D00504F35
:10E27000525400303D5A65726F2061646472003FF1
:10E280003D43505520737461747300403D454550C3
:10E29000524F4D207465737400423D426C696E6B41
:10E2A000204C454400453D44756D70204545505215
:10E2B0004F4D00463D44756D7020464C415348001B
:10E2C000483D48656C70004C3D4C69737420492F83
:10E2D0004F20506F72747300513D51756974005234
:10E2E0003D44756D702052414D00563D73686F7707
:10E2F00020696E7465727275707420566563746FF0
:10E30000727300593D506F727420626C696E6B00BD
:10E310002A0011241FBECFEFD1E2DEBFCDBF01E046
:10E320000CBF12E0A0E0B2E0EEE1FDEF03E00BBFB6
:10E3300002C007900D92A030B107D9F712E0A0E01B
:10E34000B2E001C01D92AE30B107E1F70F9460F367
:10E350000D948DFE01E20EBF0FEF0DBF11241FBE05
:10E360000D9460F30D9400F020E030E040ED57E0B4
:10E3700005C0FA013197F1F72F5F3F4F2817390792
:10E38000C0F308959C01260F311DC901A0E0B0E043
:10E390002F5F3F4FABBFFC018791882361F08093D3
:10E3A000C6008091C00086FFFCCF8091C0008064D1
:10E3B0008093C000EACF08958DE08093C6008091DD
:10E3C000C00086FFFCCF8091C00080648093C000B5
:10E3D0008AE08093C6008091C00086FFFCCF8091C8
:10E3E000C00080648093C00008950F94C2F10F9420
:10E3F000DCF10895FC019081992359F09093C600B7
:10E400008091C00086FFFCCF8091C0008064809323
:10E41000C0003196992379F70895282F982F929567
:10E420009F70892F805D8A3308F0895F8093C600D2
:10E430008091C00086FFFCCF8091C00080648093F3
:10E44000C000822F8F70982F905D9A3308F0995FEB
:10E450009093C6008091C00086FFFCCF8091C000E1
:10E4600080648093C00008959C01FB01853691056E
:10E470001CF46330710594F0C90164E670E00F94F8
:10E480002EFE605D7F4F6093C6008091C00086FFC6
:10E49000FCCF8091C00080648093C0002B30310598
:10E4A00014F43297B4F0C90164E670E00F942EFEC4
:10E4B0006AE070E00F942EFE605D7F4F6093C600AF
:10E4C0008091C00086FFFCCF8091C0008064809363
:10E4D000C000C9016AE070E00F942EFEC0968093E0
:10E4E000C6008091C00086FFFCCF8091C000806490
:10E4F0008093C00008951F93182F8EE692EE60E07F
:10E500000F94C2F11093C6008091C00086FFFCCF2B
:10E510008091C00080648093C0000F94DCF11F9153
:10E5200008952F923F924F925F926F927F928F92B7
:10E530009F92AF92BF92CF92DF92EF92FF920F9392
:10E540001F93DF93CF93CDB7DEB762970FB6F894E2
:10E55000DEBF0FBECDBF382E622ECA01DB015C01CB
:10E560006D01772420E2222E2E010894411C511CBB
:10E570008BC081E0A81680E0B80681E0C80680E084
:10E58000D80628F0C601AA27BB270F940DF2BB2797
:10E59000AD2D9C2D8B2D0F940DF28A2D0F940DF225
:10E5A0002092C6008091C00086FFFCCF8091C00001
:10E5B00080648093C0009DE29093C6008091C0006B
:10E5C00086FFFCCF8091C00080648093C0002092C1
:10E5D000C6008091C00086FFFCCF8091C00080649F
:10E5E0008093C00019828601750188249924A1E0D6
:10E5F0003A1651F03A1620F0B2E03B1661F409C029
:10E600000BBFF701779007C0C7010F9477FE782EF4
:10E6100002C0F7017080872D0F940DF22092C60082
:10E620008091C00086FFFCCF8091C0008064809301
:10E63000C000872D8052F401EF70F0708F3520F408
:10E64000E40DF51D708204C0E40DF51D8EE280839B
:10E650000894E11CF11C011D111D0894811C911CE2
:10E6600090E18916910409F0C2CF80E190E0A0E02A
:10E67000B0E0A80EB91ECA1EDB1E198AC2010F9493
:10E68000FAF10F94DCF16A94662009F072CF629679
:10E690000FB6F894DEBF0FBECDBFCF91DF911F91B3
:10E6A0000F91FF90EF90DF90CF90BF90AF909F9031
:10E6B0008F907F906F905F904F903F902F90089534
:10E6C0002F923F924F925F926F927F928F929F9282
:10E6D000AF92BF92CF92DF92EF92FF920F931F9370
:10E6E000DF93CF93CDB7DEB7CD53D1400FB6F894BB
:10E6F000DEBF0FBECDBF01E20EBF0FEF0DBF94B75F
:10E70000F894A89514BE80916000886180936000A1
:10E7100010926000789493FF05C0E0910002F091A0
:10E7200001021995279A2F9A8091C00082608093E8
:10E73000C00080E18093C40088E18093C1000000A4
:10E74000EE24FF24870144E0A42EB12CCC24DD2448
:10E7500024C0C5010197F1F70894E11CF11C011DCB
:10E76000111D21E2E2162EE4F20620E0020720E06D
:10E77000120718F031E0C32ED12CC801B70127ECE5
:10E780003BE140E050E00F9441FE611571058105C9
:10E79000910519F485B1805885B98091C00087FD35
:10E7A00003C0C114D104A9F2A6014F5F5F4FC25E3E
:10E7B000DE4F59834883CE51D140C25EDE4F8881FF
:10E7C0009981CE51D140019711F00D9410FEC05D9A
:10E7D000DE4F19821882C053D14060E0C15DDE4F28
:10E7E0001882CF52D14088249924C35DDE4F19820C
:10E7F0001882CD52D140C05EDE4F188219821A8233
:10E800001B82C052D140CE5CDE4F188219821A8220
:10E810001B82C253D140EE24FF2487010BBFF701B6
:10E8200007911691C45CDE4F19830883CC53D14005
:10E830000D940BFEC25EDE4F28813981CE51D1404E
:10E840002130310509F52091C600C25EDE4F1982E4
:10E850001882CE51D14022C02F5F3F4F4F4F5F4FA4
:10E86000213082E138078AE7480780E0580780F0C6
:10E87000C45CDE4FE881F981CC53D140EF5FFF4F9C
:10E8800019F0EE27FF27099420E030E040E050E047
:10E890008091C00087FFE0CF2091C600C35DDE4FAE
:10E8A00048815981CD52D1404F5F5F4FC35DDE4FEC
:10E8B00059834883CD52D140213209F063C64A3092
:10E8C000510508F05FC60894811C911C53E0851621
:10E8D000910409F059C600E010E018C081E280936D
:10E8E000C6008091C00086FFFCCF8091C00080648C
:10E8F0008093C0002F5F3F4F2931310579F70F9486
:10E90000DCF10F5F1F4F0530110519F020E030E0FA
:10E91000E5CF10920A0210920B0210920C02109294
:10E920000D02109206021092070210920802109235
:10E930000902109202021092030210920402109235
:10E9400005028FEE90EE60E00F94F5F180E191EE1C
:10E9500060E00F94C2F18091C00087FFFCCF9091DE
:10E96000C600903608F09F759032B8F09093C600BC
:10E970008091C00086FFFCCF8091C00080648093AE
:10E98000C000A0E2A093C6008091C00086FFFCCF2B
:10E990008091C00080648093C000983409F4D7C18E
:10E9A0009934B8F4923409F459C1933458F490333B
:10E9B00019F1903308F4E3C59F33A1F1903409F0C5
:10E9C000DEC5BDC0953409F470C1963409F0D7C5D1
:10E9D00098C1923509F42BC2933538F49C3409F46C
:10E9E000F5C1913509F0CBC518C2963509F445C279
:10E9F000993509F0C4C567C483E792EE62E00F94CD
:10EA0000F5F110920602109207021092080210927D
:10EA1000090210920A0210920B0210920C0210923C
:10EA20000D0213C18FE792EE62E00F94F5F18FEEC5
:10EA300090EE60E00F94F5F181E291EE60E00F94CA
:10EA4000C2F187EB91EE60E00F94F5F180E391EE77
:10EA500060E00F94C2F184EE90EE60E00F94F5F167
:10EA60008FE391EE60E00F94C2F186E090E061E008
:10EA700070E00F9434F20F94DCF18DE591EE60E0DC
:10EA80000F94C2F189EC91EE60E00F94F5F18EE401
:10EA900091EE60E00F94C2F183EC91EE60E00F9490
:10EAA000F5F18CE691EE60E00F94C2F18EE10F94E7
:10EAB0000DF288E90F940DF281E00F940DF20F949E
:10EAC000DCF18BE791EE60E00F94C2F119E0E0E039
:10EAD000F0E010935700E4918E2F0F940DF20F94F5
:10EAE000DCF18AE891EE60E00F94C2F1E3E0F0E03F
:10EAF00010935700E4918E2F0F940DF20F94DCF1D8
:10EB000089E991EE60E00F94C2F1E2E0F0E0109349
:10EB10005700E4918E2F0F940DF20F94DCF188EAE8
:10EB200091EE60E00F94C2F1E1E0F0E01093570045
:10EB30001491812F0F940DF20F94DCF107CF8BE825
:10EB400092EE62E00F94F5F18BE492EE60E00F94A8
:10EB5000F5F10F94DCF100E010E019C0C8016F2D51
:10EB60000F947FFEFF2031F489E492EE60E00F9471
:10EB7000C2F10BC0F092C6008091C00086FFFCCFAE
:10EB80008091C00080648093C0000F5F1F4FC80158
:10EB900081519F41A0E0B0E0ABBFFC01F790BAE229
:10EBA000FB1621F0E2E000301E07C1F60F94DCF105
:10EBB0000F94DCF187E592EE60E00F94F5F10F948D
:10EBC000DCF1CC24DD2400E010E01EC0C8010F946D
:10EBD00077FEF82E882331F489E492EE60E00F94FA
:10EBE000C2F10BC08093C6008091C00086FFFCCFAD
:10EBF0008091C00080648093C000FE1419F00894D6
:10EC0000C11CD11C0F5F1F4FC80181519F41A0E063
:10EC1000B0E0ABBFFC01E790FAE2EF1621F022E092
:10EC20000030120799F60F94DCF10F94DCF182E6C4
:10EC300092EE60E00F94C2F1C60161E070E00F94C3
:10EC400034F20F94DCF10F94DCF110920202109276
:10EC50000302109204021092050278CE89E992EE26
:10EC600062E00F94F5F1279A2F9A16C02F9880E052
:10EC700090E0E0EDF7E03197F1F7019684369105E9
:10EC8000C1F72F9A80E090E0E0EDF7E03197F1F7DF
:10EC9000019684369105C1F78091C00087FFE6CFC9
:10ECA0008091C00087FFFCCF64C485EA92EE62E0E9
:10ECB0000F94F5F140910202509103026091040219
:10ECC0007091050281E020E10F9491F2809102029F
:10ECD00090910302A0910402B091050280509F4FD1
:10ECE000AF4FBF4F8093020290930302A0930402A0
:10ECF000B093050280509041A040B04008F426CE69
:10ED0000A4CF83EB92EE62E00F94F5F140910602FE
:10ED100050910702609108027091090280E020E1A1
:10ED20000F9491F28091060290910702A09108023F
:10ED3000B091090280509F4FAF4FBF4F80930602A2
:10ED400090930702A0930802B0930902FFCD80ECD4
:10ED500092EE62E00F94F5F183E792EE60E00F949B
:10ED6000F5F18FE792EE60E00F94F5F18BE892EE0B
:10ED700060E00F94F5F189E992EE60E00F94F5F10F
:10ED800085EA92EE60E00F94F5F183EB92EE60E09D
:10ED90000F94F5F180EC92EE60E00F94F5F187ECC2
:10EDA00092EE60E00F94F5F188ED92EE60E00F9442
:10EDB000F5F18FED92EE60E00F94F5F18AEE92EEB0
:10EDC00060E00F94F5F183E093EEBDCD87EC92EE19
:10EDD00062E00F94F5F181E40F947BF282E40F94EA
:10EDE0007BF283E40F947BF284E40F947BF285E45E
:10EDF0000F947BF286E40F947BF287E40F947BF20E
:10EE000088E40F947BF28AE40F947BF28BE40F94F6
:10EE10007BF28CE40F947BF299CD88ED92EE62E068
:10EE20000F94F5F1772473948824992409C48FED05
:10EE300092EE62E00F94F5F140910A0250910B02BC
:10EE400060910C0270910D0282E020E10F9491F22A
:10EE500080910A0290910B02A0910C02B0910D02D8
:10EE600080509F4FAF4FBF4F80930A0290930B0289
:10EE7000A0930C02B0930D0269CD8AEE92EE62E08F
:10EE80000F94F5F184EE90EE60E00F94F5F18FECC5
:10EE900091EE60E00F94F5F1662477244301CC5D98
:10EEA000DE4F19821882C452D140D401C301B695F5
:10EEB000A79597958795CA5DDE4F88839983AA8326
:10EEC000BB83C652D140CC5DDE4FA881B981C4520C
:10EED000D1401196CC5DDE4FB983A883C452D14096
:10EEE000CD0162E070E00F9434F2B0E2B093C6005E
:10EEF0008091C00086FFFCCF8091C0008064809329
:10EF0000C000EDE2E093C6008091C00086FFFCCF18
:10EF10008091C00080648093C000F0E2F093C6004E
:10EF20008091C00086FFFCCF8091C00080648093F8
:10EF3000C000CA5DDE4FE880F9800A811B81C6529D
:10EF4000D140BB27A12F902F8F2D0F940DF2CA5DBA
:10EF5000DE4F8881C652D1400F940DF2B0E2FB2EF5
:10EF6000F092C6008091C00086FFFCCF8091C00067
:10EF700080648093C0000DE30093C6008091C000C0
:10EF800086FFFCCF8091C00080648093C00010E2B7
:10EF90001093C6008091C00086FFFCCF8091C00016
:10EFA00080648093C0008BBEF3012791C65DDE4F65
:10EFB0002883CA52D140A22EBB24CC24DD2408943D
:10EFC000611C711C811C911C8BBEF3018791282E42
:10EFD0003324442455240894611C711C811C911C09
:10EFE0008BBEF3013791C55DDE4F3883CB52D140E4
:10EFF0000894611C711C811C911C8BBEF30147910C
:10F00000C45DDE4F4883CC52D140ADEFEA2EAFEF66
:10F01000FA2EAFEF0A2FAFEF1A2F6E0C7F1C801E57
:10F02000911E142D032DF22CEE24EA0CFB1C0C1D5A
:10F030001D1D0F940DF220E22093C6008091C000A8
:10F0400086FFFCCF8091C00080648093C000C65DC5
:10F05000DE4F8881CA52D1400F940DF230E23093D6
:10F06000C6008091C00086FFFCCF8091C000806404
:10F070008093C000C45DDE4F8881CC52D1400F9494
:10F080000DF240E24093C6008091C00086FFFCCFA5
:10F090008091C00080648093C000C55DDE4F888190
:10F0A000CB52D1400F940DF250E25093C6008091A4
:10F0B000C00086FFFCCF8091C00080648093C000B8
:10F0C0008FEFE8168FEFF80680E0080780E018075A
:10F0D00031F484E092EE60E00F94C2F1DFC0D80119
:10F0E000C7018070907CA070B0708050904CA040A0
:10F0F000B040D1F52FEF3FE340E050E0E222F322B1
:10F1000004231523CA5DDE4FA880B980CA80DB8046
:10F11000C652D140AE0CBF1CC01ED11EAA0CBB1CD7
:10F12000CC1CDD1C8EE092EE60E00F94C2F1BB2798
:10F13000A12F902F8F2D0F940DF28E2D0F940DF285
:10F1400030E23093C6008091C00086FFFCCF8091F2
:10F15000C00080648093C0004EE34093C60080915D
:10F16000C00086FFFCCF87C08EE09EEFA0E0B0E03D
:10F17000E822F9220A231B239CE0E91694E9F90608
:10F1800090E0090790E0190709F088C0C45DDE4FE0
:10F19000A881CC52D140EA2EFF2400E010E0102FCD
:10F1A0000F2DFE2CEE24C55DDE4FB881CB52D14031
:10F1B000EB0EF11C011D111DD601C501817090706F
:10F1C000A070B070DC0199278827E80EF91E0A1F8D
:10F1D0001B1F20EF30E040E050E0A222B322C42207
:10F1E000D52241E1AA0CBB1CCC1CDD1C4A95D1F7F1
:10F1F000EA0CFB1C0C1D1D1D81E090E0A0E0B0E0BE
:10F20000282239224A225B2235E1220C331C441C7D
:10F21000551C3A95D1F7E20CF31C041D151D57013E
:10F220006801AA0CBB1CCC1CDD1C85E192EE60E0E1
:10F230000F94C2F1C801AA27BB270F940DF2BB2778
:10F24000A12F902F8F2D0F940DF28E2D0F940DF274
:10F2500090E29093C6008091C00086FFFCCF809121
:10F26000C00080648093C000AEE3A093C60080918C
:10F27000C00086FFFCCF8091C00080648093C000F6
:10F28000C601AA27BB270F940DF2BB27AD2D9C2DDD
:10F290008B2D0F940DF28A2D0F940DF20F94DCF14B
:10F2A000CC5DDE4FE881F981C452D140F99709F471
:10F2B0004DCBF4E0EF2EF12C012D112D6E0C7F1CA7
:10F2C000801E911EF2CD83E093EE62E00F94F5F183
:10F2D0008AE192EE60E00F94C2F18091C00087FF56
:10F2E000FCCF1091C6001F751093C6008091C0001E
:10F2F00086FFFCCF8091C00080648093C0000F9493
:10F30000DCF1812F81548A3108F036C1163409F4BA
:10F3100095C0173490F4133409F44EC0143430F40B
:10F320001134F1F0123409F01DC130C0143409F465
:10F3300059C0153409F016C16BC01A3409F4C4C0A1
:10F340001B3438F4173409F48FC0183409F00AC19B
:10F35000A1C01B3409F4D2C01C3409F003C1E8C0B9
:10F360008FEF81B90DC082B1809582B980E090E0C5
:10F37000E0EDF7E03197F1F70196883C9105C1F790
:10F380008091C00087FFEFCF12B8EFC08FEF84B934
:10F390000DC085B1809585B980E090E0E0EDF7E0A3
:10F3A0003197F1F70196883C9105C1F78091C00033
:10F3B00087FFEFCF15B8D9C08FEF87B90DC088B1DF
:10F3C000809588B980E090E0E0EDF7E03197F1F7C3
:10F3D0000196883C9105C1F78091C00087FFEFCF6F
:10F3E00018B8C3C08FEF8AB90DC08BB180958BB9A7
:10F3F00080E090E0E0EDF7E03197F1F70196883C8E
:10F400009105C1F78091C00087FFEFCF1BB8ADC059
:10F410008FEF8DB90DC08EB180958EB980E090E0F0
:10F42000E0EDF7E03197F1F70196883C9105C1F7DF
:10F430008091C00087FFEFCF1EB897C08FEF80BBD1
:10F440000DC081B3809581BB80E090E0E0EDF7E0F6
:10F450003197F1F70196883C9105C1F78091C00082
:10F4600087FFEFCF11BA81C08FEF83BB0DC084B38C
:10F47000809584BB80E090E0E0EDF7E03197F1F714
:10F480000196883C9105C1F78091C00087FFEFCFBE
:10F4900014BA6BC08FEF809301010FC080910201FD
:10F4A00080958093020180E090E0E0EDF7E03197F5
:10F4B000F1F70196883C9105C1F78091C00087FF64
:10F4C000EDCF1092020151C08FEF809304010FC065
:10F4D0008091050180958093050180E090E0E0ED4A
:10F4E000F7E03197F1F70196883C9105C1F78091DB
:10F4F000C00087FFEDCF1092050137C08FEF8093DA
:10F5000007010FC08091080180958093080180E079
:10F5100090E0E0EDF7E03197F1F70196883C910536
:10F52000C1F78091C00087FFEDCF109208011DC088
:10F530008FEF80930A010FC080910B01809580931B
:10F540000B0180E090E0E0EDF7E03197F1F70196F4
:10F55000883C9105C1F78091C00087FFEDCF1092E4
:10F560000B0103C085E292EEEEC98091C00087FFD7
:10F57000FCCF8091C600EAC988E392EEE4C98CE131
:10F5800091EEE1C988249924933011F1943028F444
:10F59000913089F09230B8F408C0953061F195301F
:10F5A000F0F0963009F048C043C02B3109F042C951
:10F5B00091E06BE13FC96227C15DDE4F2883CF52E6
:10F5C000D14092E037C9B22FA0E0622793E032C960
:10F5D000822F90E0A82BB92B622794E02BC92E3004
:10F5E00009F039C3622795E0C05DDE4F19821882A9
:10F5F000C053D1401FC9E1E0F0E0EC0FFD1FC05D3A
:10F60000DE4F08811981C053D140E00FF11F2083E4
:10F610000F5F1F4FC05DDE4F19830883C053D14079
:10F6200062270A171B0709F005C9D80196E002C92D
:10F63000261709F010C303C0973009F0FBC87724E0
:10F640009981933109F412C19431C8F4963009F4C8
:10F65000D8C0973050F4923009F406C1933009F4C1
:10F660006DC0913009F059C253C0913109F477C08F
:10F67000923108F0BBC0903109F04FC2F5C098310B
:10F6800009F487C0993150F4953109F4EFC09531F0
:10F6900008F4C6C1963109F040C2C2C19A3109F4DA
:10F6A0006CC09A3108F491C09B3109F45BC09D3164
:10F6B00009F033C29D81903359F48F81882311F46E
:10F6C0009EE11CC0813011F091E018C098E916C08D
:10F6D000892F807591F0903539F4E0E0F0E089E011
:10F6E0008093570094910AC0983539F4E3E0F0E034
:10F6F00089E080935700949101C090E01A821B82A8
:10F700008D818C831D829E831F8227E030E009C299
:10F710001A8288E08B8381E48C8386E58D8382E581
:10F720008E8389E48F8383E5888780E589878FE5E9
:10F730008A8782E38B872BE030E0F3C18A818139AD
:10F7400041F0823941F0803911F48FE005C080E04A
:10F7500003C082E001C08AE01A828B8344C0772410
:10F76000739482C08D81882311F48EE12CC0813086
:10F7700011F081E028C088E926C01A82E1E0F0E0BB
:10F7800089E08093570084918B831C8224E030E0D1
:10F79000C8C18B81803589F48C81883039F4E2E0EE
:10F7A000F0E089E08093570084910DC0E0E0F0E044
:10F7B00089E080935700849106C0E3E0F0E089E09F
:10F7C0008093570084911A82DFCF8D81836C99E0FA
:10F7D000E1E0F0E0082E90935700E89507B600FCB2
:10F7E000FDCF1A821B8223E030E09BC180EC8A832C
:10F7F000CE5CDE4F188219821A821B82C253D1401E
:10F800008EC18A8190E0A0E0B0E0582F44273327D2
:10F8100022278B8190E0A0E0B0E0DC0199278827C7
:10F82000282B392B4A2B5B2B8D8190E0A0E0B0E098
:10F83000282B392B4A2B5B2B8C8190E0A0E0B0E089
:10F84000BA2FA92F982F8827282B392B4A2B5B2BCF
:10F85000220F331F441F551FC05EDE4F288339839C
:10F860004A835B83C052D1401A8259C13A81C95C34
:10F87000DE4F3883C753D140CA5CDE4F1882C6536F
:10F88000D1408B81C82EDD24CA5CDE4F488159816E
:10F89000C653D140C42AD52A933109F082C0CE5C28
:10F8A000DE4F88819981AA81BB81C253D1408050AB
:10F8B000904CA340B04030F583E0CE5CDE4FE88052
:10F8C000F9800A811B81C253D140F70100935B008C
:10F8D00080935700E89507B600FCFDCFCE5CDE4F65
:10F8E000088119812A813B81C253D14000501F4FAA
:10F8F0002F4F3F4FCE5CDE4F088319832A833B8313
:10F90000C253D140C05EDE4F488159816A817B81FC
:10F91000C052D140DE011B9631E08C9111962C91A2
:10F9200011971296C75CDE4F2883C953D140C85C3B
:10F93000DE4F1882C853D14090E0C85CDE4FE881AA
:10F94000F981C853D1408E2B9F2B0C01FA01609393
:10F950005B0030935700E89511244E5F5F4F6F4F67
:10F960007F4F0EEFE02E0FEFF02ECE0CDF1CC114F8
:10F97000D10499F685E0C05EDE4F088119812A81A5
:10F980003B81C052D140F80120935B008093570027
:10F99000E89507B600FCFDCF81E180935700E8951C
:10F9A00035C0C05EDE4F88819981AA81BB81C0527B
:10F9B000D140B695A795979587957C018601ABE0D8
:10F9C000AA2EB12CAC0EBD1E0BC0D5016D915D01F0
:10F9D000C7010F947FFE0894E11CF11C01501040F8
:10F9E0000115110591F7A60160E070E0440F551F65
:10F9F000661F771FC05EDE4FE880F9800A811B8199
:10FA0000C052D1404E0D5F1D601F711F1A82C05E33
:10FA1000DE4F488359836A837B83C052D1407FC0C5
:10FA2000FA80C55CDE4FF882CB53D140C65CDE4F16
:10FA30001882CA53D1408B81C82EDD24C65CDE4FAC
:10FA400008811981CA53D140C02AD12A1A828981DA
:10FA5000BE016D5F7F4F843121F59601C05EDE4FA0
:10FA6000E880F9800A811B81C052D1400BBFF701A9
:10FA700087919691DB018C9311969C936E5F7F4FDB
:10FA8000D801C7010296A11DB11DC05EDE4F88835B
:10FA90009983AA83BB83C052D14022503040F1F6F3
:10FAA00036C0C05EDE4F288139814A815B81C052F9
:10FAB000D1400894C108D108760100E010E0089414
:10FAC000C11CD11C0894E11CF11C011D111DE20E8A
:10FAD000F31E041F151F21BDBB27A52F942F832FB5
:10FAE00082BD2F5F3F4F4F4F5F4FF89A80B5DB01CC
:10FAF0008D93BD012E153F054007510761F7C05E8C
:10FB0000DE4F288339834A835B83C052D1409601FC
:10FB10002D5F3F4FFB01108204C080EC8A8322E0FE
:10FB200030E08BE18093C6008091C00086FFFCCF5F
:10FB30008091C00080648093C000C15DDE4FF88179
:10FB4000CF52D140F093C6008091C00086FFFCCF19
:10FB50008091C00080648093C000432F3093C60022
:10FB60008091C00086FFFCCF8091C00080648093AC
:10FB7000C000922F2093C6008091C00086FFFCCF6A
:10FB80008091C00080648093C0008EE08093C600A6
:10FB90008091C00086FFFCCF8091C000806480937C
:10FBA000C00065E1C15DDE4FE880CF52D1406E25D7
:10FBB00069276427FE01319610C090819093C6009A
:10FBC0008091C00086FFFCCF31968091C000806498
:10FBD0008093C0006927215030402115310569F715
:10FBE0006093C6008091C00086FFFCCF8091C0006A
:10FBF00080648093C00085B1805885B9772081F4F6
:10FC0000C15DDE4F0881CF52D1400F5FC15DDE4F35
:10FC10000883CF52D14090E0A0E0B0E00D941AF4F8
:10FC200027982F9880E090E020ED37E0F901319798
:10FC3000F1F7019684369105C9F700008091C00064
:10FC40008D7F8093C00081E180935700E895EE2777
:10FC5000FF270994FFCF90E00D941AF497FB092E2B
:10FC600007260AD077FD04D02ED006D000201AF443
:10FC7000709561957F4F0895F6F7909581959F4F08
:10FC80000895A1E21A2EAA1BBB1BFD010DC0AA1FDD
:10FC9000BB1FEE1FFF1FA217B307E407F50720F0F5
:10FCA000A21BB30BE40BF50B661F771F881F991F70
:10FCB0001A9469F760957095809590959B01AC01B9
:10FCC000BD01CF010895AA1BBB1B51E107C0AA1FAC
:10FCD000BB1FA617B70710F0A61BB70B881F991FED
:10FCE0005A95A9F780959095BC01CD010895F99991
:10FCF000FECF92BD81BDF89A992780B50895262F31
:10FD0000F999FECF1FBA92BD81BD20BD0FB6F89400
:0EFD1000FA9AF99A0FBE01960895F894FFCF63
:00000001FF
